20:37:17.640539 IP 192.168.11.227.55796 > 192.168.11.6.9520: UDP, length 20
	0x0000:  001d 6f00 d450 126d f741 b893 0800 4500  ..o..P.m.A....E.
	0x0010:  0030 4f89 0000 4011 92fa c0a8 0be3 c0a8  .0O...@.........
	0x0020:  0b06 d9f4 2530 001c bf4d 55a5 db00 1400  ....%0...MU.....
	0x0030:  3031 3031 0100 0000 0301 0000 0000       0101..........
20:37:17.793072 IP 192.168.11.227.57935 > 192.168.11.6.9520: UDP, length 16
	0x0000:  001d 6f00 d450 126d f741 b893 0800 4500  ..o..P.m.A....E.
	0x0010:  002c 8ff2 0000 4011 5295 c0a8 0be3 c0a8  .,....@.R.......
	0x0020:  0b06 e24f 2530 0018 fe5a 55a7 0700 0000  ...O%0...ZU.....
	0x0030:  0000 0101 0100 0301 0000                 ..........
20:37:17.805504 IP 192.168.11.227.55621 > 192.168.11.6.9520: UDP, length 32
	0x0000:  001d 6f00 d450 126d f741 b893 0800 4500  ..o..P.m.A....E.
	0x0010:  003c b253 0000 4011 3024 c0a8 0be3 c0a8  .<.S..@.0$......
	0x0020:  0b06 d945 2530 0028 b0bd 55a7 f302 0000  ...E%0.(..U.....
	0x0030:  0000 0101 0200 0102 0400 434f 4e46 4947  ..........CONFIG
	0x0040:  2e53 5953 0000 0400 0100                 .SYS......
20:37:17.881085 IP 192.168.11.227.55621 > 192.168.11.6.9520: UDP, length 32
	0x0000:  001d 6f00 d450 126d f741 b893 0800 4500  ..o..P.m.A....E.
	0x0010:  003c 7cff 0000 4011 6578 c0a8 0be3 c0a8  .<|...@.ex......
	0x0020:  0b06 d945 2530 0028 b3ba 55a7 f302 0000  ...E%0.(..U.....
	0x0030:  0000 0101 0300 0102 0400 434f 4e46 4947  ..........CONFIG
	0x0040:  2e53 5953 0000 0003 0100                 .SYS......
20:37:17.907654 IP 192.168.11.227.60677 > 192.168.11.6.9520: UDP, length 32
	0x0000:  001d 6f00 d450 126d f741 b893 0800 4500  ..o..P.m.A....E.
	0x0010:  003c e783 0000 4011 faf3 c0a8 0be3 c0a8  .<....@.........
	0x0020:  0b06 ed05 2530 0028 12dc 55a7 c704 0000  ....%0.(..U.....
	0x0030:  0000 0101 0400 0103 0400 466f 6e74 4c69  ..........FontLi
	0x0040:  7374 2e6c 7374 0400 0100                 st.lst....
20:37:17.986620 IP 192.168.11.227.60677 > 192.168.11.6.9520: UDP, length 32
	0x0000:  001d 6f00 d450 126d f741 b893 0800 4500  ..o..P.m.A....E.
	0x0010:  003c bc07 0000 4011 2670 c0a8 0be3 c0a8  .<....@.&p......
	0x0020:  0b06 ed05 2530 0028 15d9 55a7 c704 0000  ....%0.(..U.....
	0x0030:  0000 0101 0500 0103 0400 466f 6e74 4c69  ..........FontLi
	0x0040:  7374 2e6c 7374 0003 0100                 st.lst....
20:37:18.288733 IP 192.168.11.227.50011 > 192.168.11.6.9520: UDP, length 32
	0x0000:  001d 6f00 d450 126d f741 b893 0800 4500  ..o..P.m.A....E.
	0x0010:  003c 0a65 0000 4011 d812 c0a8 0be3 c0a8  .<.e..@.........
	0x0020:  0b06 c35b 2530 0028 bea7 55a7 f702 0000  ...[%0.(..U.....
	0x0030:  0000 0101 0600 0102 0400 434f 4e46 4947  ..........CONFIG
	0x0040:  2e53 5953 0000 0400 0100                 .SYS......
20:37:18.370379 IP 192.168.11.227.50011 > 192.168.11.6.9520: UDP, length 32
	0x0000:  001d 6f00 d450 126d f741 b893 0800 4500  ..o..P.m.A....E.
	0x0010:  003c bc89 0000 4011 25ee c0a8 0be3 c0a8  .<....@.%.......
	0x0020:  0b06 c35b 2530 0028 c1a4 55a7 f702 0000  ...[%0.(..U.....
	0x0030:  0000 0101 0700 0102 0400 434f 4e46 4947  ..........CONFIG
	0x0040:  2e53 5953 0000 0003 0100                 .SYS......
20:37:18.405522 IP 192.168.11.227.58291 > 192.168.11.6.9520: UDP, length 32
	0x0000:  001d 6f00 d450 126d f741 b893 0800 4500  ..o..P.m.A....E.
	0x0010:  003c b8c4 0000 4011 29b3 c0a8 0be3 c0a8  .<....@.).......
	0x0020:  0b06 e3b3 2530 0028 6c62 55a3 72d4 0000  ....%0.(lbU.r...
	0x0030:  0000 0101 0800 0103 0400 466f 6e74 4c69  ..........FontLi
	0x0040:  7374 2e6c 7374 0400 0100                 st.lst....
20:37:18.485228 IP 192.168.11.227.58291 > 192.168.11.6.9520: UDP, length 32
	0x0000:  001d 6f00 d450 126d f741 b893 0800 4500  ..o..P.m.A....E.
	0x0010:  003c 0834 0000 4011 da43 c0a8 0be3 c0a8  .<.4..@..C......
	0x0020:  0b06 e3b3 2530 0028 9c32 55a3 4601 0000  ....%0.(.2U.F...
	0x0030:  0000 0101 0900 0103 0400 466f 6e74 4c69  ..........FontLi
	0x0040:  7374 2e6c 7374 0003 0100                 st.lst....
20:37:18.608115 IP 192.168.11.227.64809 > 192.168.11.6.9520: UDP, length 20
	0x0000:  001d 6f00 d450 126d f741 b893 0800 4500  ..o..P.m.A....E.
	0x0010:  0030 c70d 0000 4011 1b76 c0a8 0be3 c0a8  .0....@..v......
	0x0020:  0b06 fd29 2530 001c 459d 55a3 5099 0000  ...)%0..E.U.P...
	0x0030:  0000 0101 0a00 070d 0100 463a 0000       ..........F:..
20:37:18.624136 IP 192.168.11.227.55789 > 192.168.11.6.9520: UDP, length 16
	0x0000:  001d 6f00 d450 126d f741 b893 0800 4500  ..o..P.m.A....E.
	0x0010:  002c 9f91 0000 4011 42f6 c0a8 0be3 c0a8  .,....@.B.......
	0x0020:  0b06 d9ed 2530 0018 871f 55a3 7ba1 0000  ....%0....U.{...
	0x0030:  0000 0101 0b00 0401 0000                 ..........
20:37:25.914494 IP 192.168.11.227.60371 > 192.168.11.6.9520: UDP, length 229
	0x0000:  001d 6f00 d450 126d f741 b893 0800 4500  ..o..P.m.A....E.
	0x0010:  0101 03ad 0000 4011 de05 c0a8 0be3 c0a8  ......@.........
	0x0020:  0b06 ebd3 2530 00ed 993f 55a3 d25f bd00  ....%0...?U.._..
	0x0030:  0000 0101 0c00 0204 0600 4400 7465 6d70  ..........D.temp
	0x0040:  2e4e 6d67 0000 0000 bd00 0000 0003 0100  .Nmg............
	0x0050:  0100 015a 3030 0241 0f18 0531 3130 3031  ...Z00.A...11001
	0x0060:  1b30 6208 310e 3230 3030 321f 331e 300a  .0b.1.20002.3.0.
	0x0070:  492f 0a4f 2f0f 321c 311d 301a 3107 3045  I/.O/.2.1.0.1.0E
	0x0080:  4449 544f 5220 5633 2e39 390d 0d04 4e6f  DITOR.V3.99...No
	0x0090:  7465 4e6d 6720 6669 6c65 2076 6572 7369  teNmg.file.versi
	0x00a0:  6f6e 3a76 332e 3939 2020 2020 2020 2020  on:v3.99........
	0x00b0:  2020 2020 2020 2020 2020 2020 2020 2020  ................
	0x00c0:  2020 2020 2020 2020 2020 2020 2020 2020  ................
	0x00d0:  2020 2020 2020 2020 2020 2020 2020 2020  ................
	0x00e0:  2020 2020 2020 2020 2020 2020 2020 2020  ................
	0x00f0:  2020 2020 2020 2020 2020 2020 2020 2020  ................
	0x0100:  2020 2020 2020 2020 2020 2020 2020 04    ...............
20:37:25.946794 IP 192.168.11.227.60774 > 192.168.11.6.9520: UDP, length 56
	0x0000:  001d 6f00 d450 126d f741 b893 0800 4500  ..o..P.m.A....E.
	0x0010:  0054 7297 0000 4011 6fc8 c0a8 0be3 c0a8  .Tr...@.o.......
	0x0020:  0b06 ed66 2530 0040 7e5f 55a3 b6d3 0000  ...f%0.@~_U.....
	0x0030:  0000 0101 0d00 020e 0a00 443a 5c54 5c74  ..........D:\T\t
	0x0040:  656d 702e 4e6d 6700 0000 0000 0000 0000  emp.Nmg.........
	0x0050:  0000 0000 0000 0000 0000 bd00 0000 6aaa  ..............j.
	0x0060:  0000                                     ..
20:37:26.590606 IP 192.168.11.227.59066 > 192.168.11.6.9520: UDP, length 84
	0x0000:  001d 6f00 d450 126d f741 b893 0800 4500  ..o..P.m.A....E.
	0x0010:  0070 cd31 0000 4011 1512 c0a8 0be3 c0a8  .p.1..@.........
	0x0020:  0b06 e6ba 2530 005c b035 55a3 4b18 2c00  ....%0.\.5U.K.,.
	0x0030:  0000 0101 0e00 0202 0600 5345 5155 454e  ..........SEQUEN
	0x0040:  542e 5359 5300 2c00 0000 0003 0100 0100  T.SYS.,.........
	0x0050:  0000 5351 0400 0100 0000 4454 0f7f 2620  ..SQ......DT..&.
	0x0060:  0520 0101 0101 2620 0520 0101 0101 7373  ......&.......ss
	0x0070:  bd00 7465 6d70 2e4e 6d67 0000 0000       ..temp.Nmg....
20:37:27.981817 IP 192.168.11.227.64245 > 192.168.11.6.9520: UDP, length 16
	0x0000:  001d 6f00 d450 126d f741 b893 0800 4500  ..o..P.m.A....E.
	0x0010:  002c 3858 0000 4011 aa2f c0a8 0be3 c0a8  .,8X..@../......
	0x0020:  0b06 faf5 2530 0018 594e 55a3 8469 0000  ....%0..YNU..i..
	0x0030:  0000 0101 0f00 0402 0000                 ..........
20:37:33.817623 IP 192.168.11.227.55534 > 192.168.11.6.9520: UDP, length 32
	0x0000:  001d 6f00 d450 126d f741 b893 0800 4500  ..o..P.m.A....E.
	0x0010:  003c 7069 0000 4011 720e c0a8 0be3 c0a8  .<pi..@.r.......
	0x0020:  0b06 d8ee 2530 0028 10f5 55a3 8526 0000  ....%0.(..U..&..
	0x0030:  0000 0101 1000 0102 0400 434f 4e46 4947  ..........CONFIG
	0x0040:  2e53 5953 0000 0400 0100                 .SYS......
20:37:33.889840 IP 192.168.11.227.55534 > 192.168.11.6.9520: UDP, length 32
	0x0000:  001d 6f00 d450 126d f741 b893 0800 4500  ..o..P.m.A....E.
	0x0010:  003c 086f 0000 4011 da08 c0a8 0be3 c0a8  .<.o..@.........
	0x0020:  0b06 d8ee 2530 0028 e724 55a3 b1f3 0000  ....%0.(.$U.....
	0x0030:  0000 0101 1100 0102 0400 434f 4e46 4947  ..........CONFIG
	0x0040:  2e53 5953 0000 0003 0100                 .SYS......
20:37:33.915121 IP 192.168.11.227.58533 > 192.168.11.6.9520: UDP, length 32
	0x0000:  001d 6f00 d450 126d f741 b893 0800 4500  ..o..P.m.A....E.
	0x0010:  003c f449 0000 4011 ee2d c0a8 0be3 c0a8  .<.I..@..-......
	0x0020:  0b06 e4a5 2530 0028 448c 55a3 8fb8 0000  ....%0.(D.U.....
	0x0030:  0000 0101 1200 0103 0400 466f 6e74 4c69  ..........FontLi
	0x0040:  7374 2e6c 7374 0400 0100                 st.lst....
20:37:33.997124 IP 192.168.11.227.58533 > 192.168.11.6.9520: UDP, length 32
	0x0000:  001d 6f00 d450 126d f741 b893 0800 4500  ..o..P.m.A....E.
	0x0010:  003c d662 0000 4011 0c15 c0a8 0be3 c0a8  .<.b..@.........
	0x0020:  0b06 e4a5 2530 0028 1bd4 55a3 bb6d 0000  ....%0.(..U..m..
	0x0030:  0000 0101 1300 0103 0400 466f 6e74 4c69  ..........FontLi
	0x0040:  7374 2e6c 7374 0003 0100                 st.lst....
20:37:34.113003 IP 192.168.11.227.57311 > 192.168.11.6.9520: UDP, length 20
	0x0000:  001d 6f00 d450 126d f741 b893 0800 4500  ..o..P.m.A....E.
	0x0010:  0030 f563 0000 4011 ed1f c0a8 0be3 c0a8  .0.c..@.........
	0x0020:  0b06 dfdf 2530 001c a650 55a3 0330 0000  ....%0...PU..0..
	0x0030:  0000 0101 1400 070d 0100 463a 0000       ..........F:..
20:37:34.127536 IP 192.168.11.227.58169 > 192.168.11.6.9520: UDP, length 16
	0x0000:  001d 6f00 d450 126d f741 b893 0800 4500  ..o..P.m.A....E.
	0x0010:  002c 1a3e 0000 4011 c849 c0a8 0be3 c0a8  .,.>..@..I......
	0x0020:  0b06 e339 2530 0018 eec1 55a3 00b3 0000  ...9%0....U.....
	0x0030:  0000 0101 1500 0401 0000                 ..........
20:37:34.802512 IP 192.168.11.227.61887 > 192.168.11.6.9520: UDP, length 228
	0x0000:  001d 6f00 d450 126d f741 b893 0800 4500  ..o..P.m.A....E.
	0x0010:  0100 4b63 0000 4011 9650 c0a8 0be3 c0a8  ..Kc..@..P......
	0x0020:  0b06 f1bf 2530 00ec 2c4e 55a3 c9db bc00  ....%0..,NU.....
	0x0030:  0000 0101 1600 0204 0600 4400 7465 6d70  ..........D.temp
	0x0040:  2e4e 6d67 0000 0000 bc00 0000 0003 0100  .Nmg............
	0x0050:  0100 015a 3030 0241 0f18 0531 3130 3031  ...Z00.A...11001
	0x0060:  1b30 6208 310e 3230 3030 321f 331e 300a  .0b.1.20002.3.0.
	0x0070:  492f 0a4f 2f0f 321c 311d 301a 3107 3045  I/.O/.2.1.0.1.0E
	0x0080:  4449 544f 5220 5633 2e39 390d 044e 6f74  DITOR.V3.99..Not
	0x0090:  654e 6d67 2066 696c 6520 7665 7273 696f  eNmg.file.versio
	0x00a0:  6e3a 7633 2e39 3920 2020 2020 2020 2020  n:v3.99.........
	0x00b0:  2020 2020 2020 2020 2020 2020 2020 2020  ................
	0x00c0:  2020 2020 2020 2020 2020 2020 2020 2020  ................
	0x00d0:  2020 2020 2020 2020 2020 2020 2020 2020  ................
	0x00e0:  2020 2020 2020 2020 2020 2020 2020 2020  ................
	0x00f0:  2020 2020 2020 2020 2020 2020 2020 2020  ................
	0x0100:  2020 2020 2020 2020 2020 2020 2004       ..............
20:37:34.832546 IP 192.168.11.227.60431 > 192.168.11.6.9520: UDP, length 56
	0x0000:  001d 6f00 d450 126d f741 b893 0800 4500  ..o..P.m.A....E.
	0x0010:  0054 f4b0 0000 4011 edae c0a8 0be3 c0a8  .T....@.........
	0x0020:  0b06 ec0f 2530 0040 7f0c 55a3 9fc8 0000  ....%0.@..U.....
	0x0030:  0000 0101 1700 020e 0a00 443a 5c54 5c74  ..........D:\T\t
	0x0040:  656d 702e 4e6d 6700 0000 0000 0000 0000  emp.Nmg.........
	0x0050:  0000 0000 0000 0000 0000 bc00 0000 795f  ..............y_
	0x0060:  0000                                     ..
20:37:35.672446 IP 192.168.11.227.52756 > 192.168.11.6.9520: UDP, length 84
	0x0000:  001d 6f00 d450 126d f741 b893 0800 4500  ..o..P.m.A....E.
	0x0010:  0070 328b 0000 4011 afb8 c0a8 0be3 c0a8  .p2...@.........
	0x0020:  0b06 ce14 2530 005c c66f 55a3 4592 2c00  ....%0.\.oU.E.,.
	0x0030:  0000 0101 1800 0202 0600 5345 5155 454e  ..........SEQUEN
	0x0040:  542e 5359 5300 2c00 0000 0003 0100 0100  T.SYS.,.........
	0x0050:  0000 5351 0400 0100 0000 4454 0f7f 2620  ..SQ......DT..&.
	0x0060:  0520 0101 0101 2620 0520 0101 0101 7265  ......&.......re
	0x0070:  bc00 7465 6d70 2e4e 6d67 0000 0000       ..temp.Nmg....
20:37:35.941192 IP 192.168.11.227.54116 > 192.168.11.6.9520: UDP, length 16
	0x0000:  001d 6f00 d450 126d f741 b893 0800 4500  ..o..P.m.A....E.
	0x0010:  002c 665c 0000 4011 7c2b c0a8 0be3 c0a8  .,f\..@.|+......
	0x0020:  0b06 d364 2530 0018 1d25 55a3 de23 0000  ...d%0...%U..#..
	0x0030:  0000 0101 1900 0402 0000                 ..........
